:020000040800F2
:100000000040022085B400089D940008A1940008D7
:1000100000000000000000000000000000000000E0
:10002000000000000000000000000000459B0008E8
:100030000000000000000000B19B00086997000864
:10004000D5B4000800000000D5B40008D5B40008FD
:10005000D5B40008D5B40008D5B40008D5B400085C
:10006000BD940008CD940008DD940008D5B40008C4
:10007000D5B40008D5B40008D5B4000800000000CD
:10008000D5B40008D5B40008D5B40008D5B400082C
:10009000ED940008D5B40008D5B40008D5B4000824
:1000A000D5B40008D5B40008D5B40008D5B400080C
:0800B000D5B40008D5B4000826
:1000C00010B5064C2378002B07D1054B002B02D02E
:1000D000044800E000BF0123237010BD5804002035
:1000E000000000005C6D0508044B10B5002B03D028
:1000F0000349044800E000BF10BDC04600000000F6
:100100005C0400205C6D050802B471464908490092
:10011000095649008E4402BC7047C04602B471467D
:1001200049084900095C49008E4402BC7047C0463A
:1001300003B47146490840004900095E49008E44F5
:1001400003BC704703B47146490840004900095A8E
:1001500049008E4403BC7047002243088B4274D38D
:1001600003098B425FD3030A8B4244D3030B8B42B8
:1001700028D3030C8B420DD3FF22090212BA030CC1
:100180008B4202D31212090265D0030B8B4219D3A2
:1001900000E0090AC30B8B4201D3CB03C01A5241C2
:1001A000830B8B4201D38B03C01A5241430B8B420A
:1001B00001D34B03C01A5241030B8B4201D30B03F3
:1001C000C01A5241C30A8B4201D3CB02C01A52411A
:1001D000830A8B4201D38B02C01A5241430A8B42DD
:1001E00001D34B02C01A5241030A8B4201D30B02C6
:1001F000C01A5241CDD2C3098B4201D3CB01C01AE0
:10020000524183098B4201D38B01C01A52414309E9
:100210008B4201D34B01C01A524103098B4201D3D7
:100220000B01C01A5241C3088B4201D3CB00C01A44
:10023000524183088B4201D38B00C01A52414308BC
:100240008B4201D34B00C01A5241411A00D20146E1
:10025000524110467047FFE701B5002000F0F0F86A
:1002600002BDC0460029F7D076E7704703460B432E
:100270007FD4002243088B4274D303098B425FD39F
:10028000030A8B4244D3030B8B4228D3030C8B42CB
:100290000DD3FF22090212BA030C8B4202D31212B1
:1002A000090265D0030B8B4219D300E0090AC30B86
:1002B0008B4201D3CB03C01A5241830B8B4201D333
:1002C0008B03C01A5241430B8B4201D34B03C01A1C
:1002D0005241030B8B4201D30B03C01A5241C30A94
:1002E0008B4201D3CB02C01A5241830A8B4201D305
:1002F0008B02C01A5241430A8B4201D34B02C01AEF
:100300005241030A8B4201D30B02C01A5241CDD293
:10031000C3098B4201D3CB01C01A524183098B42DE
:1003200001D38B01C01A524143098B4201D34B01C7
:10033000C01A524103098B4201D30B01C01A52412A
:10034000C3088B4201D3CB00C01A524183088B42B1
:1003500001D38B00C01A524143088B4201D34B009A
:10036000C01A5241411A00D201465241104670470C
:100370005DE0CA0F00D04942031000D34042534011
:1003800000229C4603098B422DD3030A8B4212D3D1
:10039000FC22890112BA030A8B420CD38901921103
:1003A0008B4208D3890192118B4204D389013AD040
:1003B000921100E08909C3098B4201D3CB01C01A15
:1003C000524183098B4201D38B01C01A5241430928
:1003D0008B4201D34B01C01A524103098B4201D316
:1003E0000B01C01A5241C3088B4201D3CB00C01A83
:1003F000524183088B4201D38B00C01A5241D9D29B
:1004000043088B4201D34B00C01A5241411A00D21B
:100410000146634652415B10104601D34042002B17
:1004200000D54942704763465B1000D3404201B596
:10043000002000F005F802BD0029F8D016E770474B
:100440007047C0468446101C62468C46191C6346A1
:1004500000E0C0461FB501F073FE002801D4002162
:10046000C8421FBD10B501F0CBFD4042013010BDA8
:1004700010B501F065FE002801DB002010BD012051
:1004800010BDC04610B501F05BFE002801DD002064
:1004900010BD012010BDC04610B501F0EDFD0028D3
:1004A00001DC002010BD012010BDC04610B501F0D8
:1004B000E3FD002801DA002010BD012010BDC04678
:1004C0008446081C6146FFE71FB500F08BFB00283F
:1004D00001D40021C8421FBD10B500F00DFB404201
:1004E000013010BD10B500F07DFB002801DB0020BD
:1004F00010BD012010BDC04610B500F073FB0028F0
:1005000001DD002010BD012010BDC04610B500F077
:100510001BFB002801DC002010BD012010BDC046DF
:1005200010B500F011FB002801DA002010BD0120F9
:1005300010BDC0469E2110B5C905041CFFF7F0FF91
:10054000002803D1201C00F093FE10BD9E21201C2A
:10055000C90500F0C9FC00F08BFE80231B069C46F9
:100560006044F2E770B500220C4B04000D00FFF769
:100570009DFF002804D12000290002F003FC70BD7B
:10058000064B00222000290002F0B4F802F0FAFB2A
:1005900080231B069C466044F1E7C0460000E04112
:1005A000F8B54746CE4643025B0A4400C20F9C465C
:1005B0004800DD004B02240E5B0A000E80B5984611
:1005C00026009146C90FDB00271A8A4229D0002F46
:1005D00015DD00284AD1002B00D095E0ED08FF2C56
:1005E00000D188E06B025B0AE6B25B02F605580AAE
:1005F0003043D20710430CBC90469946F8BD002FFB
:1006000000D087E0601CC0B2012800DCB6E0EE1A22
:10061000720100D5C5E0002E3DD100220026002346
:10062000E3E7002F00DC96E000285DD0FF2C60D0CF
:100630008022D20413431B2F00DDECE02022D21BCA
:1006400018009340F8405A1E93410343ED186B0184
:100650007BD50134FF2C00D1B7E0012207262A40C8
:100660006B089A4D1D4015432E4029E0FF2CB5D054
:100670008022D20413431B2F00DDB2E02022D21BC4
:1006800019009340F9405A1E93410B43ED1A6B0138
:100690005BD5AD01AE09300002F0ECFC05388640B8
:1006A000844265DC041B330020200134E340041B3A
:1006B000A640751EAE41334307261D0000241E4090
:1006C00001224B461A40002E04D00F232B40042B4E
:1006D00000D004356B0100D480E70134E6B2FF2C72
:1006E0002FD1FF26002380E7002B52D1FF2C00D012
:1006F00074E70A00ED08002DF3D08023DB032B43C1
:100700005B025B0AFF2670E7013F002FBED0FF2C83
:10071000B1D163E7002C47D0FF2869D08024E404DE
:100720007A4225431B2A00DDC5E02C002026D44058
:10073000B21A95406A1E954125435D1B0400894607
:10074000A5E7AB015B0A50E7002401224B461A40A3
:100750006B07BAD142E7002F3BD10134E0B2012848
:100760004ADDFF2CBDD00726ED186D082E40A7E707
:100770000723574D241A35401E40A1E7002C1BD1FA
:10078000002D6ED1002B00D19AE00A001D003C0024
:1007900024E7013F002F00D158E7FF2C00D04AE7A3
:1007A000A7E75E1B894676E7002D1CD10A00FF28CB
:1007B0001FD004001D0011E7002D5DD1002B17D1C3
:1007C00080230022DB03FF260FE70A00FF26002319
:1007D0000BE7002C21D1002D66D1FF28E9D11D00A7
:1007E00087E7012352E77A1CA7D0FA43FF2899D163
:1007F0000A001D00FF24F1E6002E21D1002D4FD06C
:10080000002B4CD0ED186B019ED5314B07362E4096
:1008100001241D4054E7012318E7FF28DFD080247E
:10082000E4047F4225431B2F4DDC2026F61B2C00C1
:10083000B540FC406A1E95412543ED18040006E7CB
:10084000002DCCD0002B00D153E780216046C90396
:10085000084203D04046084200D11D00012111404A
:1008600047E7002B00D1B9E6EA1A500125D5072643
:100870005D1B2E40894623E7FF24002B00D1ADE607
:1008800080226046D203104204D04046104201D17B
:100890001D00894601224B46FF241A409EE62B008C
:1008A000DD080A0000249DE67A1CC6D0FF43FF281D
:1008B000B9D11D001DE701253FE7151E00D044E713
:1008C0000022002391E60125B7E7C046FFFFFF7D28
:1008D000FFFFFFFBF8B557464E464546DE4644024D
:1008E000E0B546008846640A360EC70F002E63D076
:1008F000FF2E24D08023E400DB041C430023994610
:100900009B467F3E434642465D02D20F5B006D0A26
:100910001B0E9046924665D0FF2B55D080220021B9
:10092000ED00D2047F3B1543F61A43464A467B400E
:100930000F2A00D98DE06D48920082589746002C0E
:1009400054D108239946063BFF269B46DAE700254B
:10095000534602291BD0032900D1BFE0012928D02A
:1009600030007F30002820DD6A0704D00F222A40A3
:10097000042A00D004352A0103D530005C4A8030B7
:100980001540FE2803DCAC01640AC2B201E0FF227C
:1009900000246402D205600ADB07104318433CBC04
:1009A00090469946A246AB46F8BD0122101A1B2874
:1009B0007CDD00220024ECE7002C1DD104239946A5
:1009C000033B00269B469DE7FF3E002D20D10221E0
:1009D00043464A467B400A430F2AD8D845489200EE
:1009E00082589746002D19D10121F1E70C23994631
:1009F000093BFF269B4685E7200002F03BFB76265D
:100A0000431F9C4000237642361A99469B4679E75D
:100A10004A4603231A439146032186E7280002F041
:100A200029FB431F36189D40763600217DE7802440
:100A30000023E403FF22ACE700258023DB031C42F4
:100A400028D01D4226D12B435C02640A4346FF2274
:100A50009FE762016C01A24224D21B210025013EC6
:100A6000012710006D005200002801DB944201D8DC
:100A7000121B3D4301390029F3D11400621E944139
:100A800025436DE7BA46594625005346022900D052
:100A900061E77CE78023DB031C436402640A3B00BC
:100AA000FF2276E7121B1A210125D9E79E362A007C
:100AB000B5402C00C240651EAC411443620704D00F
:100AC0000F222240042A00D00434620103D4A4017E
:100AD000640A00225DE7012200245AE78024E4032F
:100AE0002C436402640AFF2253E7C046286E0508BF
:100AF000FFFFFFF7686E050870B542004E024C001C
:100B000045026D0A120EC30F760A240EC90FFF2A82
:100B10000FD0FF2C11D00120A24200D070BDB542F1
:100B2000FCD18B420DD0002AF8D12800451EA841E7
:100B3000F4E70120002DF1D1EBE70120002EEDD1EB
:100B4000E9E70020EAE7C04670B54A004E024502D8
:100B500044006D0A240EC30F760A120EC90FFF2C33
:100B600015D0FF2A0ED0002C15D1002A01D1002E5D
:100B70001CD0002D14D08B4227D00220013B1840FE
:100B8000013870BD002EEED002204042F9E7002D62
:100B9000FAD1FF2A0ED0002A0ED1002EEDD00BE0A4
:100BA00001230139994308000130EAE70020002DB4
:100BB000E7D0E2E7002EE7D18B42DED1944205DD9B
:100BC0000221581E08400138DBE70024A24204DC61
:100BD000B542D2D80020B542D3D2581E0123984343
:100BE0000130CEE730B5420044024D02C30F480049
:100BF000640A120E6D0A000EC90FFF2A12D0FF28D8
:100C00000CD0002A12D1002819D1002D17D1002CA8
:100C10002BD00220013B1840013826E0002DF0D0F7
:100C2000022022E0002CFBD1FF281FD000281FD17A
:100C3000002D1DD10220013B1840013815E0002C89
:100C40000ED08B42E5D10022904204DCAC42E0D8C9
:100C50000020AC4209D2581E01239843013004E021
:100C60000123013999430800013030BD002DD7D14F
:100C70008B42CED18242E7DD0221581E0840013866
:100C8000F3E7C046F0B54E4657464546DE46E0B56A
:100C900043025B0A450083B00F1C99462D0EC60F18
:100CA000002D57D0FF2D24D08020DB00C004184336
:100CB000002381469A469B467F3D7C027A00FB0FCB
:100CC000640A120E984623D0FF2A4BD0E3008024FA
:100CD0000020E4047F3A1C43AD186B1C4746019387
:100CE000534677403A000F2B48D87D499B00CB589C
:100CF0009F46002B00D085E008339A46063B9B4672
:100D00007C027A00FB0FFF25640A120E9846DBD1A5
:100D1000002C00D090E0524601231A439246012055
:100D2000DBE74C4658461700022824D0032800D1A0
:100D3000CFE00022002301284DD15802D205400AFD
:100D4000FF071043384303B03CBC90469946A24687
:100D5000AB46F0BD002B5BD104239A46033B002534
:100D60009B46AAE7FF35002C60D1524602231A4366
:100D700092460220B1E7FF220023DEE74B461B0C20
:100D80009C464B462604360C180461463300220C60
:100D90006446000C43434E435043544380191A0C9D
:100DA0001218964203D9802149028C4664441B04E0
:100DB0001B0C1004C01883015E1EB341800E184343
:100DC000130C1B199B0103431C00230179D501233C
:100DD00062081C401443019A7F32002A4DDD6307EC
:100DE00004D00F232340042B00D00434230103D567
:100DF0003C4B019A1C408032FE2ABCDCA3015B0AFA
:100E0000D2B29AE70C239A46093BFF259B4654E74A
:100E1000180002F02FF94A46431F76259A40002316
:100E20006D4291462D1A9A469B4646E75246032349
:100E30001A439246032050E7200002F01BF9431F9B
:100E40002D1A9C40763D002047E780230027DB03D6
:100E5000FF2272E7424666E74C463200584662E798
:100E600080234A46DB031A4222D01C4220D123436E
:100E70005B025B0A4746FF225FE701239A1A1B2A9F
:100E800021DC23000199D3409E318C401A002300BD
:100E90005C1EA34113435A0704D00F221A40042AB0
:100EA00000D004335A0111D49B015B0A002244E7AD
:100EB00080234A46DB0313435B025B0A3700FF22B1
:100EC0003BE7019587E70022002336E70122002354
:100ED00033E78023DB0323435B025B0AFF222CE71B
:100EE000A86E0508FFFFFFF7F8B54746CE46440059
:100EF000C20F80B547024802400A84466646480051
:100F00007F0A240EF60025009046FB00000EC90F54
:100F1000B146FF2800D185E001267140261A914292
:100F200057D0002E43DD002800D07FE0494600293D
:100F300000D1AAE0013E002E00D0F7E05B1A5A0172
:100F400000D48BE09B019C09200002F093F8053847
:100F50008440854200DDD3E0451B2300202001357D
:100F6000EB40451BAC40621E9441234307240025FF
:100F70001C40012241460A40002C04D00F21194098
:100F8000042900D00433590100D480E00135ECB2CB
:100F9000FF2D00D0A3E0FF2400235B02E405580AE4
:100FA000D207204310430CBC90469946F8BD002E52
:100FB00074D1601CC0B2012800DCA7E04A469C1A2C
:100FC000620100D5B6E0002CBED10022002400232F
:100FD000E3E7002E00DC85E0002846D0FF2C49D056
:100FE00080224846D2041043814601221B2E09DC90
:100FF00020204C46801B84404A462000F240441E7C
:10100000A04102439B185A0128D50135FF2D00D17C
:10101000A8E00122072494491A405B080B401343BF
:101020001C40A6E7002E00D078E775E7FF2C54D0CF
:1010300080224946D2041143894601221B2E09DC35
:1010400020214846891B88404A460100F240481E3C
:1010500081410A439B1A5A0100D573E70122414698
:101060000A40590700D089E711E04846002858D1C6
:10107000FF2C0CD1DB08002B00D18CE78020C003B3
:1010800003435B025B0AFF2487E7FF2C25D0DB08C4
:10109000FF2DF0D05B025B0AECB27EE7002C4DD056
:1010A000FF2818D08024E404724223431B2A00DD69
:1010B000C4E01C002025D440AA1A93405A1E934134
:1010C00023434A460500D31A884638E7721CF8D0F5
:1010D000F243FF28EAD10A004B46FF25D7E79B01E0
:1010E0005B0A5AE7002E41D1651CE9B2012945DDB2
:1010F000FF2D00D14FE707244B445B081C4038E725
:1011000007225A4B2D1A2340144032E7002C1DD1E0
:10111000002B7AD14B46002B00D191E00A0000252C
:10112000B5E7013E002E19D14B446CE7FF2C84D16A
:10113000FF25ACE74A468846D41A05E7002BC5D1FF
:101140000A00FF28C8D005004B46A0E7002B49D174
:101150004B46002B77D00A00FF2598E7FF2C00D0E4
:1011600043E787E70A00FF24002316E7002C15D188
:10117000002B57D1FF28E6D14B467BE7002C20D12E
:10118000002B57D04946002953D04B445A0168D50B
:101190000724364A1C4001251340EAE6FF28EBD01D
:1011A0008022D204764213431B2E53DC2025AD1B34
:1011B0001A00AB40F2405C1EA34113434B440500B0
:1011C00021E7002BD8D04946002900D152E78021E1
:1011D000C9030F4200D14DE76046084200D049E7FD
:1011E0004B4647E74846FF25002800D14FE78022BD
:1011F000D203174204D06046104201D14B468846C4
:1012000001224146FF250A4041E7484600281FD0F9
:101210001A1A500120D54A460724D31A1C40884682
:101220000025A6E6741CC9D0F643FF28BCD14B4666
:1012300020E799464B460025DB082BE7012340E7D2
:1012400000220023A9E680230022DB03FF24A4E67A
:1012500000251CE70123B1E7002AF1D01300002587
:10126000FCE60025FAE6C046FFFFFF7DFFFFFFFB1F
:1012700041024200C30F490A120E00207E2A0DD9F6
:101280009D2A0CD8802000040143952A0ADC962070
:10129000821AD1404842002B00D108007047034A0F
:1012A0009818FBE7963A9140F4E7C046FFFFFF7FAE
:1012B00070B500283DD0C317C5185D40C40F280085
:1012C00001F0D8FE9E22121A962A07DCD2B2082814
:1012D00033DD083885406802400A23E0992A0BDD97
:1012E000052329001B1AD94003001B339D402B0006
:1012F0005D1EAB4119430D00052801DD431F9D40D4
:101300002B000F490B406E0709D00F263540042DE6
:1013100005D004335D0102D59F220B40121A9B01B8
:10132000580AD2B24002D205400AE40710432043D3
:1013300070BD002400220020F4E76802400AF1E7B3
:10134000FFFFFFFB70B5041E34D001F093FE9E2218
:10135000121A962A07DCD2B208282EDD08388440FB
:101360006002400A21E0992A09DD030021001B33B5
:1013700099404B1E994105231B1ADC400C4305285C
:1013800001DD431F9C4023000D490B40650709D038
:101390000F252C40042C05D004335C0102D59F227C
:1013A0000B40121A9B01580AD2B24002D205400AE1
:1013B000104370BD00220020F7E76002400AF4E706
:1013C000FFFFFFFBF0B54F464646D6460C0009032B
:1013D000C0B5490A470F5E0039431F03DB0F9C4627
:1013E00065007B0A570F1F436D0DE40F760DA14674
:1013F000C000B846D200AB1B64457BD0002B5FDD3C
:10140000002E00D0A4E03E00164300D112E15E1E83
:10141000002E00D09EE1871A4346B8428041012544
:10142000C91A4042091A0B0200D431E149024E0A9E
:10143000002E00D16EE1300001F01CFE0300083BDD
:101440001F2B00DD61E120223900D21A9E40D140DD
:101450009F400E439D4200DD51E15D1B6B1C1F2B25
:1014600000DD7CE12021C91A3D0030008F4088401A
:10147000DD40791E8F41310007222843D9400025E5
:1014800007433A40002A09D00F233B40042B05D0E4
:101490003B1DBB42BF417F42C9191F000B0200D454
:1014A00026E26A1CC64B55056D0D9A4200D106E135
:1014B000C44AFF080A40530752023B43120B8EE016
:1014C000002B00D0B8E06B1C5B055B0D012B00DC32
:1014D00030E1871A4346B842B641CB1A76429E1B8A
:1014E000330200D54CE13B003343A1D1002200245C
:1014F000002570E0002B00DCE5E0002E00D183E049
:10150000AF4EB54260D0802636043743B846382BFC
:1015100000DC3EE1434613431F007A1E97413F180B
:1015200087428041404209180B0200D4B0E0A44B2E
:1015300001359D4200D1C3E0A24A7B080A40012147
:101540000F401F435108D30707221F433A4099E732
:101550009B4EB54238D0802636043743B846382BE8
:1015600000DDDCE01F2B00DC30E11E004746203EA2
:10157000F740BC46202B04D04026F31A46469E4036
:101580003243170063467A1E97411F43CCE0002B7D
:1015900000D104E24346134300D159E14B07C00890
:1015A00018438023C9081B03194208D04546ED089B
:1015B0001D4204D14346D008590708432900420F71
:1015C000C9007F4D1143C0004B07CA087C49C008C1
:1015D00003438D4268D012036D05120B6D0D00217F
:1015E00012031800130B0A0D12051A43764B2D0532
:1015F00013402B435B00E4075B08234319001CBC2A
:1016000090469946A246F0BD3E00164312D05E1E9B
:10161000002E00D000E187188742804141444042BB
:10162000091801250B0233D5022585E764463300EE
:10163000414610001D00C7E7002D00D0DAE00C0085
:101640000443F3D05C1C00D19FE15D4CA64200D165
:101650002FE1DB43382B00DD66E11F2B00DD83E14A
:1016600020240500E41A0F00DD40D940A040434685
:10167000A7405B1A441EA04198462F433843171ACF
:10168000BA42924143465242991A64463500CAE62C
:1016900007223A40002A00D0F6E64B07CA0848491C
:1016A000FF083B438D4296D11900114300D19EE1C2
:1016B000802109030A431203120B414D8FE71500E5
:1016C000002200238BE7002B00D0C7E06B1C5F05D6
:1016D0007F0D012F00DCF1E0394DAB4200D1B9E0C4
:1016E00085180A008542894142444942511807221F
:1016F000CF076D082F4349083A401D00C2E6072274
:101700003049ED1A31403A40BCE63E002838864068
:1017100000279FE6380001F0ADFC20308EE64346FE
:1017200013431F007A1E9741C71BB84280414042B5
:10173000091A78E60E003B0006431343002D61D1E1
:10174000002E00D0F4E0002B00D11BE164463900EC
:10175000100039E71A4FBB427AD03300FFE6300061
:101760001F3DE840202B03D04021CB1A9E40374339
:101770007B1E9F41072207433A400021002589E74D
:10178000171A4346BA42B641591A76428E1B64462E
:101790004EE61F2B00DDADE020264746F61AB74087
:1017A000B9461700B246DF404E463E433700564624
:1017B000B240561EB24117434246DA408918AEE69F
:1017C000FF070000FFFF7FFFFFFF0F802026474637
:1017D000F61AB740B9461700B246DF404E463E43C0
:1017E00037005646B240561EB24117434246DA40D1
:1017F000891A99E77F4CA6425BD0802424045B427F
:10180000214327E7002E0CD1002B00D1CBE064460A
:1018100039001000774DD7E6764FBB4218D0330021
:1018200075E6002B14D04B07C00818438023C90865
:101830001B03194207D0FC081C4204D17907D008C9
:101840000843E14621004C46420FC9001143C00045
:10185000684DB9E61D0000220023C0E6002D5BD1D3
:101860000D00054300D1E2E65D1C00D1B0E0614D02
:10187000AE421FD0DB43382B71DC1F2B00DD96E01E
:1018800020250F00ED1AAF40B9460700AA46DF40F9
:101890004D463D432F005546A840D940451EA8411E
:1018A00088440743BF189742924151424144350052
:1018B0003AE6644635004146100085E60B000343D6
:1018C000002D00D063E6002BF5D04346134300D132
:1018D0007AE687188742804107224144404209182E
:1018E0003A400B0200D4D5E6434B01351940C9E517
:1018F000380069E61E004746203EF740BC46202BD4
:1019000004D04026F31A46469E40324317006346F1
:101910007A1E97411F4302E6364DAE42CAD080255B
:101920002D045B422943A6E70843411E8841A6E6F1
:10193000002B00D148E6871A4346B842B641CB1A7D
:1019400076429E1B33024BD5171A4346BA42924148
:10195000591A5242891A072264463A4092E50143D5
:101960000F00791E8F419DE71C000F00203CE740CF
:10197000202B03D04024E31A99400843411E88419C
:1019800038437CE60022002425E6171A4346BA4273
:101990009241591A5242891A6446350043E541463C
:1019A0001000144D10E680220024120380E61D0072
:1019B0000F00203DEF40BC46202B03D04025EB1A02
:1019C0009940084307006346781E87411F4369E733
:1019D000871897429B4141445B42C9183500A3E5F3
:1019E0003B003343CED0072231003A4052E6002379
:1019F0001A00F4E5FF070000FFFF7FFFF0B5574630
:101A0000DE464E464546E0B5834607000E034800D5
:101A100085B092461C00360B400DCD0F002800D13A
:101A20009DE0954B984239D08023F6001B041E435D
:101A3000924A7B0F334399469446030063440093D4
:101A400000230026FF00029323031B0B984663002C
:101A5000E40F52465B0D019400D1B3E086498B42FE
:101A600000D19EE04246D100802212040A43514632
:101A7000490F11438B46814952468C460099634475
:101A8000CB1A0021D20000932B0063409A460F2E00
:101A900000D905E17A4BB6009B599F465B4633431C
:101AA000994600D0B8E00223082600270090029350
:101AB000CAE7CB463A0002990195019B9A46022952
:101AC00027D0032900D180E2012944D06D49009B31
:101AD0008C4663441C00002C38DD530700D013E211
:101AE000D2085B46DB0109D55946674B19408B4646
:101AF0008021C9008C46009B63441C00634B9C42C0
:101B000007DC5B4664055F075B0217431B0B620D36
:101B100002E000230027584A00211B031C0B0B0D79
:101B20001B05234314055A4A380013401C435346EF
:101B30006400DB0764081C43210005B03CBC9046F0
:101B40009946A246AB46F0BD0122524201231B1B1F
:101B5000382B00DCADE1002200230027DCE75B46E8
:101B6000334399465ED0002E00D18AE1300001F067
:101B700081FA03000B3B1C2B00DD7BE11D22D31AF5
:101B80005A460100DA4008398E4013005F4633435D
:101B900099468F403F4B00261B1A00930023029367
:101BA00052E7414653460B433B499B468C46009BBC
:101BB000634400935B46002B3BD1022300221E436B
:101BC000022161E7434613439B4637D04346002B2F
:101BD00000D162E1404601F04DFA03000B3B1C2BA3
:101BE00000DD53E102004146083A914088461D213C
:101BF000CB1A5146D9400B0041460B439B465346F6
:101C000093401A00009B25499C46604403008C4683
:101C100063440093002137E70323B14600900C266C
:101C2000029311E700230093013304260027029357
:101C30000AE70323C3461E43032125E701331E435E
:101C40000022012120E700239A46802300271B035E
:101C5000094A61E7802349461B03194200D1E2E0AB
:101C60005946194200D0DEE00B431B0317001B0B43
:101C7000A246014A50E7C046FF07000001FCFFFFF3
:101C8000E86E0508FF030000FFFFFFFEFE070000EF
:101C9000FFFF0F800DFCFFFF01F8FFFFF3030000C3
:101CA000D94500D9CBE000D1C6E03C00484600272A
:101CB000009B013B00935B46160E1B021E43130262
:101CC000984633041B0C9946310C0191FEF7CAFA71
:101CD0004A4642430B04210C050019438A4207D9A6
:101CE0008919013D8E4203D88A4201D9851E89197E
:101CF000881A0199FEF7B6FA09048C464A4621046F
:101D000064464243090C030021438A4204D98919DD
:101D1000013B8E4200D8F1E02D041D43AB46434603
:101D2000891A4246280C12041D0C5B46140C220032
:101D30001B041B0C5A4303946B43444302956843B2
:101D40001B19150CEB189C4203D980246402A4468D
:101D500060441C0C15041B042D0C20185D198142D5
:101D600077D373D00C1AA24A7D1BAF42BF41944671
:101D7000009B7F426344E01B1C00864200D1DBE0F5
:101D80000199FEF76FFA4A4642430B04290C0700FB
:101D900019438A4207D98919013F8E4203D88A42E2
:101DA00001D9871E8919881A0199FEF75BFA09047F
:101DB0004A46894629044D464243090C03002943FB
:101DC0008A4207D98919013B8E4203D88A4201D938
:101DD000831E89193F04891A3A00039F1A43380069
:101DE00013041B0C584381460298150C6F43434360
:101DF00045434846000C8446DB1963449F4203D99F
:101E0000802040028446654448461F0C00041B04A1
:101E1000000C7D191818A94200D284E000D17FE09F
:101E200001231A4357E680234A461B0313431B032F
:101E30001B0BAA466F4A6FE6BA4200D935E74B46FC
:101E4000DC0758087B081C43FF0734E70024AF4237
:101E500089D247444745A4415B466442A4196418AB
:101E6000013BA6421ED2A0426DD800D1B6E0241A92
:101E70009B4678E703005A46283B9A400027914644
:101E800088E6584601F0F6F8203072E60300524624
:101E9000283B9A4093460022B4E6504601F0EAF807
:101EA00020309AE6A642E2D1B845DCD9341A9B46E6
:101EB00059E71F2B65DC504C0099A4465C466144F1
:101EC00008008C4011008240D940501E82410C43D2
:101ED00014435A46DA401300620709D00F22224009
:101EE000042A05D02200141D9442894149425B18FE
:101EF0001A0262D50122002300270DE68A4200D88B
:101F00000AE7831E891907E70F231340042B00D12A
:101F1000E6E5171D9742924153429B44FA08E0E5DB
:101F2000002800D1D7E57118531EB14227D3A9422A
:101F300015D358D01A0073E7002B00DC04E6012308
:101F400000229B44CDE502234744474589415B423B
:101F50009C46494289190C19E344241A03E7434675
:101F60005F0047459B41B8465B429E19023A89197A
:101F7000A94200D054E7404500D051E7ABE51A0034
:101F8000F6E71F215F4649420C1BE740202B07D094
:101F90001A49009B8C46634418005B4683401A43F1
:101FA000501E82413A4307270023174009D00F21D2
:101FB000002311401400042995D122005F075B0221
:101FC0001B0BD20817430022A6E5802359461B03AA
:101FD0000B431B0317001B0B064A9DE5BD42B2D8FD
:101FE0009B460024BFE68045B9D31A00C3E7C0462C
:101FF000FF030000FF0700001E0400003E04000075
:10200000F0B54F464646D6468446C0B58046194E82
:1020100018030F034D00000B5C0082463F0B6D0D53
:10202000C90F9146640DDB0F0120B5420AD0B442BE
:1020300003D0A54201D157450CD01CBC904699460F
:10204000A246F0BD66463E43F7D1AC42F5D15446B8
:102050001443F2D10120C845EFD1994207D0002D99
:10206000EBD163461F433800471EB841E5E7002027
:10207000E3E7C046FF070000F0B54F464646D646A8
:102080004D00C0B50E03C90F8A462C491F035C00E2
:102090008046360B6D0D91463F0B640DDB0F8D4274
:1020A0001ED08C4216D0002D1ED130438446002C09
:1020B00001D13A4323D06246002A1AD09A4529D04A
:1020C000514602200139084001381CBC904699460F
:1020D000A246F0BD39001143E5D002204042F4E7AA
:1020E0003043FAD1AC420FD0002C0FD13A43E7D0A5
:1020F0000CE00122013B934318000130E5E7634601
:102100000020002BE1D0DBE73A43E6D19A45D7D156
:10211000A542D5DCA54205DBBE42D1D808D00020BF
:10212000BE42D2D250460123013898430130CCE759
:10213000C845C5D80020C845F4D3C6E7FF0700004E
:10214000F0B54F464646D6464D00C0B50E03C90F02
:102150008A462E491F035C008046360B6D0D914662
:102160003F0B640DDB0F8D4218D08C4211D0002D37
:1021700018D130438446002C1ED13A431CD163460B
:102180000020002B30D05146022001390840013890
:102190002AE039001143EAD0022025E03043FBD188
:1021A000AC4226D0002C26D13A4324D151460220FD
:1021B00001390840013817E06246002A0FD09A45DD
:1021C000E1D1A54205DBBE42DDD819D00020BE42D8
:1021D0000AD25046012301389843013004E001221D
:1021E000013B9343180001301CBC90469946A2461F
:1021F000F0BD3A43D0D19A45C5D1A542C3DCE0E752
:10220000C845C0D80020C845E3D3EDE7FF0700006C
:10221000F0B55746DE464E464546E0B583460600D5
:102220000F03480087B092461D003F0B400DCC0FB6
:10223000002800D16FE0DE4B984238D08023FF00A9
:102240001B041F43730F3B430193DA4B002799464E
:1022500000239B46F60081442B0369001B0B52466A
:102260009846490DED0F002900D185E0D04B9942E9
:1022700000D173E04346DA0080231B041343524627
:10228000CC48520F84461343524600206144D2008A
:1022900089442100694000918C46012149448A46C5
:1022A0000F2F00D990E0C449BF00CF59BF465B460D
:1022B0003B43019300D06AE10223082700268146B0
:1022C0009B46C9E732005846019B614600910228AF
:1022D00000D175E0032800D1FEE1012800D02CE1F7
:1022E00000230027002600253F032A0D3F0BB3489B
:1022F00012053A4302401B051343009A5B00D107C5
:102300005B080B433000190007B03CBC904699466F
:10231000A246AB46F0BD5B463B43019300D12FE1A3
:10232000002F00D1A5E1380000F0A4FE03000B3B14
:102330001C2B00DD96E11D22D31A5A460100DA401B
:102340005E4608398F4013008E403B4301939C4BFF
:1023500000271B1A994600239B467DE741465346BA
:102360000B4393498C46E144002B00D01AE1022232
:102370000220174300228CE7134300D10DE14346AE
:10238000002B00D181E1404600F074FE02000B3AC0
:102390001C2A00DD72E10100434608398B40984653
:1023A0001D239A1A5346D3401A00434613435246FC
:1023B0008A404946081A824989468144002068E7D4
:1023C0007B4B002700268EE7140C1204120C110020
:1023D000370C3604350C794328008C462E006043B8
:1023E0006044834656432100300C8046584679436A
:1023F00040440291844506D98846802149028C4692
:10240000E044414602913604010C360C00048B4630
:1024100081191E0C1B041B0C0391190079438C4677
:10242000280075436544A8465843050C4544774346
:10243000A94203D9802149028C466744290C8C4665
:1024400039000004000C2D042D186144AB440591A3
:102450005946049101990F043F0C080C390051436F
:102460004243904602008C46090C8B4662437C43F3
:1024700044445C44A04503D9802149028846424433
:10248000210C884661460904090C8C4639005943E1
:10249000434370437E430F0CF6182404BE19644472
:1024A00042448C46B34203D980235B0298464044A1
:1024B000029B61469846049B370443449B46AB45C8
:1024C000AD416B420D0405992D0C8C467F19674474
:1024D000FD18A8465D462D19A542A44193466442C5
:1024E000A446C344DC448F42BF4198459B41934579
:1024F0009241A445A4415B427F421F43360C5242A5
:102500006442BF192243BF18624638184302D20DF5
:10251000039913436A020A43501E82416146ED0D3E
:102520002A434E023243D90100D4B3E001265008B9
:1025300032400243DE0732435B08224C5444002CF5
:1025400062DD510709D00F201040042805D0101D6E
:102550009042924152429B180200D90104D5802436
:102560001948E400034054441848844200DD27E73A
:102570005E075B02D2081F0B630516435B0DB2E6D4
:10258000002399460133042700269B4664E6032373
:10259000019781460C279B465EE6012201201743E6
:1025A000002276E6032303201F43434671E6C0461C
:1025B000FF07000001FCFFFF286F0508FFFF0F80E9
:1025C0000DFCFFFFFF030000FFFFFFFEFE07000002
:1025D0000023802700933F030026434B83E6019BA3
:1025E0003200A446584670E6AC466EE68027019954
:1025F0003F0339422DD03B422BD11F433F033F0BBA
:1026000000951600384B6EE601252D1B382D00DD98
:1026100066E61F2D40DC35481C0050441600824001
:102620008440EE40501E824134431443EB40620725
:1026300009D00F222240042A05D02200141D944202
:10264000804140421B181A023ED501230027002674
:1026500049E68027019B3F031F433F033F0B009444
:10266000214B40E603005A46283B9A40002601923F
:102670006DE6584600F0FEFC203057E60300524657
:10268000283B9A401300002293E6504600F0F2FCEB
:1026900020307BE6CA4650E71F201E004042041B44
:1026A000E640202D03D0124C5444A3401A43501E40
:1026B0008241324307260027164009D00F2000230D
:1026C000104014000428B9D122005E075B021F0BE2
:1026D000D2081643002306E680273F031F433F032B
:1026E0003F0B1600004BFEE5FF0700001E04000034
:1026F0003E040000F8B557464E464546DE460C00FF
:102700000903E0B5490A460F5F0031431E03DB0FA2
:10271000760A9B46530F3343C84E6500C000E40F52
:10272000D2006D0DA24681467F0D9C469046B74271
:1027300000D1B9E05B46012673409B46EE1BA345E2
:1027400000D183E0002E63DD002F00D0B1E06346AE
:10275000134300D123E1731E002B00D0BAE1861A87
:102760006346B04280410125C91A4042091A0B0252
:1027700000D447E149024B0A98464346002B00D15A
:1027800089E1404600F076FC0300083B1F2B00DD8A
:102790007CE120223000D21A4146D040994002000C
:1027A0009E400A439D4200DD6AE15D1B6B1C1F2BAE
:1027B00000DD94E1202110003500C91A8E40DA4076
:1027C0008840DD40711E8E411100072228430025FC
:1027D00006433240002A09D00F233340042B05D092
:1027E000331DB342B641764289191E000B0200D454
:1027F0003DE26A1C914B55056D0D9A4200D119E1DD
:102800008F4AF6080A40570752023743120B9BE0E3
:10281000002E00D0C5E06E1C7605760D012E00DC82
:1028200048E16746861ACB1BB042BF417F42B8469B
:102830001F004346FF1A3B00B8461B0200D55FE16C
:1028400037439AD100220024002579E0002E00DCD5
:10285000FAE0002F00D18DE0784B9D4267D08023B5
:1028600067461B041F43BC46382E00DC52E163461A
:1028700013435A1E93411E18864280414042091854
:102880000B0200D4BEE06D4B01359D4200D1D2E079
:102890006B4A73080A4001210E401E435108D307BA
:1028A00007221E43324095E71E00164300D045E73D
:1028B00040E7624B9D423AD0802367461B041F438A
:1028C000BC46382E00DDEBE01F2E00DC3AE1330081
:1028D0006746203BDF403B00202E05D04027BF1B32
:1028E0006646BE40324390464646721E964133438A
:1028F000DAE0002B00D114E26346134300D168E113
:1029000080234E07C008C9081B030643194208D09C
:102910006046C008184204D163460100D2085E0731
:102920001643F3009946C900720F444D11434B46BC
:10293000DE08424B4F073743CA089D4200D16EE084
:1029400012036D05120B6D0D00211203130B0A0DFE
:1029500012051A433B4B2D0513402B435B00E40744
:102960005B082343380019003CBC90469946A246B8
:10297000AB46F8BD6346134311D0731E002B00D045
:1029800007E18618864280416144404209180125CA
:102990000B0237D502257BE73E00614691463500A4
:1029A000C5E75C46002D00D0E1E00B000343F3D007
:1029B000731C00D1ACE1214B9F4200D13AE1F343BB
:1029C000382B00DD6FE11F2B00DD8CE120250E0090
:1029D000ED1AAE40B0460600AA46DE4045463543F5
:1029E0002E005546D940A8406346451EA8415B1AB3
:1029F0009C463043161AB242924163465242991A9B
:102A00003D00B4E607223240002A00D0E4E60B4B3A
:102A1000F6084F073743CA089D4200D090E73B00B5
:102A2000134300D1A6E180231B031A431203120BA8
:102A3000024D89E715000022002785E7FF07000007
:102A4000FFFF7FFFFFFF0F80002E00D0C7E06B1C51
:102A50005E05760D012E00DCF0E0C84DAB4200D1E2
:102A6000B9E085180A0085428941624449425118FB
:102A70000722CE076D082E43490832401D00A9E603
:102A8000BF49ED1A114007223240A3E63200283830
:102A90008240002686E6300000F0ECFA203073E633
:102AA000634613435A1E9341C61AB04280414042C6
:102AB000091A5CE60E00674606431743002D5ED1F7
:102AC000002E00D0F3E0002F00D11EE15C466146ED
:102AD00091462CE7A94FBE427BD01E00F1E61000C4
:102AE0001F3DE840202B03D04021CB1A9A401643CB
:102AF000731E9E410722064332400021002583E7D2
:102B0000161A6346B2428041591A40420B1A98463F
:102B10005C4632E61F2E00DDABE02027BB1B9A4649
:102B200063465746BB40994613004F46F3401F4348
:102B30003B005746BA40571EBA4113436246F24023
:102B4000891898E62027BB1B9A4663465746BB4028
:102B5000994613004F46F3401F433B005746BA4087
:102B6000571EBA4113436246F240891A9CE7834BD1
:102B70009F425FD080252D047342294320E7002E19
:102B80000CD1002F00D1D0E05C46614691467B4DD0
:102B9000CDE67A4FBE421CD01E0065E6002F18D04D
:102BA000C0084E0706438020C9080003014208D030
:102BB0006346DC08044204D12100DA46D2085E07ED
:102BC0001643F300994601245346C900720F11437E
:102BD0001C406A4DABE61D0000220027B4E6002D24
:102BE00059D10B00034300D1D6E6731C00D1B2E0EB
:102BF000624B9F421ED0F343382B6FDC1F2B00DD4E
:102C000097E020250E00ED1AAE40B0460600AA4619
:102C1000DE40454635432E005546A840D940451E66
:102C2000A8418C440643B6189642924151426144F1
:102C30003D0025E63D006146914678E60B000343E2
:102C4000002D00D055E6002BF5D06346134300D18C
:102C50006DE6861886428041614440420918002290
:102C60000B0200D4D0E6464B01351940B2E5B1461F
:102C70005DE633006746203BDF403B00202E05D059
:102C80004027BF1B6646BE40324390464646721EF2
:102C900096413343EFE5394B9F42CBD080252D043D
:102CA00073422943A8E70843411E8841A2E6002F4A
:102CB00000D13CE66346861ACF1AB0429B415B4284
:102CC000FB1A98461B024ED5161A6346B242924131
:102CD000591A5242891A5C4600227BE501430E00D4
:102CE000711E8E419FE71D000E00203DEE40B04654
:102CF000202B04D04025EB1A9940084381464846D2
:102D00004346411E8841184374E60022002417E61A
:102D1000161A6346B2429241591A5242891A3D002C
:102D200025E561469146154D01E6802200241203F7
:102D300079E61D000E00203DEE40B046202B04D069
:102D40004025EB1A9940084381464E464346711E82
:102D50008E411E4367E7861896429B4161445B4261
:102D6000C9183D008CE547463743CED0072241467F
:102D7000324049E600273A00E6E5C046FF0700007A
:102D8000FFFF7FFF30B5144D0A034B00120B5B0DA4
:102D9000C90F0024AB4211DD104CA34210DC80248B
:102DA000640322430E4CE41A1F2C0CDD0D48C31A99
:102DB000DA4013005C42002900D11C00200030BD25
:102DC000094BCC18FAE7094DE040AC4663449A4001
:102DD00013000343EEE7C046FE0300001D0400009D
:102DE0003304000013040000FFFFFF7FEDFBFFFF33
:102DF00070B500282DD0C317C5185D40C40F28003A
:102E000000F038F9154B1B1A5B055B0D0A2815DD20
:102E10000B38854000222D032D0B002110002D03BF
:102E20000A0D2D0B12052A430D4D1B052A40134395
:102E30005B00E4075B082343190070BD0200290012
:102E4000153291400A000B21081AC5402D032D0BA5
:102E5000E3E70024002300250022DEE71E04000033
:102E6000FFFF0F8010B5041E25D000F003F9144BAE
:102E70001B1A5B055B0D0A2812DD0B38844000220B
:102E80002403240B0021100024030A0D240B120537
:102E900022430C4C1B05224013435B00590810BD14
:102EA00002002100153291400A000B21081AC4408B
:102EB0002403240BE6E7002300240022E2E7C046B7
:102EC0001E040000FFFF0F804100090E4B1C70B56F
:102ED000DBB24602750AC40F012B14DDE0239B0010
:102EE0006D07360BCB1800210A0D280012051C4D6A
:102EF00032435B052A405B0813435B00E4075B0831
:102F00002343190070BD002914D1002D1ED02800C4
:102F100000F0B0F80A281CDC0B232A001B1ADA4048
:102F2000030015339D400F4B12031B1A5B05160B54
:102F30005B0DD8E7002D06D0320B802636036D07D7
:102F40001643094BCFE7084B0026CCE700230026A9
:102F5000C9E703002A000B3B9A400025E3E7C0467F
:102F6000FFFF0F8089030000FF070000F0B54C0051
:102F7000640D0B03621C5B0A460F5205C90F1E430A
:102F8000C500520D012A29DD374BE718FE2F1CDC46
:102F9000002F3BDD8001431E98410722F3006D0F97
:102FA00003432B431A40002A04D00F221A40042A5C
:102FB00000D004338022D2041A4024D00137FAB260
:102FC000FF2F02D09B01580A01E0FF22002040029F
:102FD000D205400AC90710430843F0BD3543002C11
:102FE00004D1002D0AD100220020F0E7002DECD002
:102FF0008020C0033043FF22E9E7002400235B0266
:10300000580AE2B2E3E7DB083C00F8E73B0017337D
:10301000F3DB80231B0433431E26F61B1F2E14DD17
:1030200002225242D71B1A00FA401700202E04D069
:103030000E4A94466444A3401D432B005D1EAB41E1
:1030400007223B431A400027ADE7094A2800A2188F
:10305000954093406C1EA541F04007222B4303434B
:103060001A4000279FE7C04680FCFFFFA2FCFFFF3D
:1030700082FCFFFF1C2101231B04984201D3000C9A
:1030800010391B0A984201D3000A08391B099842DB
:1030900001D30009043902A2105C40187047C046F1
:1030A0000403020201010101000000000000000011
:1030B000002B11D1002A0FD1002900D1002802D005
:1030C0000021C943081C07B4024802A1401802901D
:1030D00003BDC0466DD3FFFF03B4684601B5029837
:1030E00000F030F8019B9E4602B00CBC7047C04611
:1030F000F0B5CE46474615042D0C2E0080B50704CA
:10310000140C3F0C9946030C7E435D4367436343B5
:103110007F19340CE4199C46A54203D980235B0235
:103120009846C4444B4643435143250C36046544FA
:10313000360C2404A4195B19591820000CBC9046C5
:103140009946F0BDF0B54F464646D646C0B5040098
:1031500082B00D00914698468B422FD82CD0414624
:10316000484600F0B1F829000600200000F0ACF855
:10317000331A9C46203B9A4600D576E04B46524691
:1031800093401F004B46624693401E00AF4228D832
:1031900025D05346A41BBD41002B00DA7BE0002262
:1031A000002300920193012352469340019301238F
:1031B00062469340009318E08242D0D90022002357
:1031C000009201930A9B002B01D01C605D60009867
:1031D000019902B01CBC90469946A246F0BDA3429C
:1031E000D7D900220023009201936346002BE9D037
:1031F000FB079846414672080A437B0866460EE084
:10320000AB4201D1A2420CD8A41A9D41012024193D
:103210006D410021013E24184D41002E06D0AB42E5
:10322000EED9013E24196D41002EF8D10098019984
:10323000534600196941002B23DB2B005246D34033
:103240002A006446E2401C0053461500002B2DDB8B
:1032500026005746BE40330026006746BE40320077
:10326000801A994100900191ACE7624620239B1A95
:103270004A46DA406146130042468A4017001F431F
:1032800080E7624620239B1A2A0066469A40230064
:10329000F3401343D4E76246202300219B1A002207
:1032A000009101920122DA40019280E720236246D8
:1032B00026009B1ADE402F00B0466646B7404646C1
:1032C0003B003343C8E7C04610B5002903D1FFF7E0
:1032D000D1FE203002E0081CFFF7CCFE10BDC04636
:1032E00002780B78002A03D0013001319A42F7D0DE
:1032F000D01A70470023C25C0133002AFBD1581E4C
:103300007047000042024B0240004900520A5B0A2B
:10331000090E000EFF2806D00020FF2902D1180058
:10332000431E98417047FE38002AFBD1F4E7C0469F
:1033300070B50C4E0D031C0349005B002D0B490DAD
:10334000240B5B0DB14208D0064900208B4203D10B
:1033500014432000441EA04170BD05430120002DF0
:10336000FAD1F1E7FF0700008023084A5B001168EB
:1033700010B50B431360032006F040F8041E03D180
:1033800006F01CF8200010BD0124FBE700200240DD
:10339000034A044B11681B785B1813607047C046E2
:1033A000E093012004000020014B18687047C046DC
:1033B000E0930120014B18687047C0469075FF1FCD
:1033C000014B18687047C0469475FF1F014B186881
:1033D0007047C0469875FF1F034A044913680B40A5
:1033E000184310607047C04600000140FFF9FFFF1E
:1033F00080684007C00F70470023F0B587B0059381
:103400000133041E019300D1BBE0856D002D05D171
:1034100005F000FC23005433E5651D708023266809
:103420005B05B2681A4200D1AEE00022B368019297
:10343000DB0000D4BDE03000FFF7DAFF1023A16D00
:10344000194000D0F7E0002800D0F4E0A36D7D4AD9
:1034500008001A4002231343A36523689A68D20721
:103460002ED42600DA6818308243A0683C36024326
:10347000DA606268E56C900F367880072843012E89
:1034800006D1656C276C2F43A56C3E432E43304319
:103490001E696D4F3E40802706431E615600760828
:1034A000FF05BE420CD080263606B24208D0674ED9
:1034B000674F35682F40F025AD032A403A4332600C
:1034C000267E627EB603D2031643A27E5703029283
:1034D000226B551EAA4112031500E26816432269A9
:1034E0003E4303969446002A00DB6CE056007608C3
:1034F00022002C321778039A7F0017432F433A009B
:103500003243661CF67F012E05D1029D002D5DD150
:10351000802676023243666A002E05D0E027A56A2F
:103520007F003E402E433243DE684A4F656B3E408B
:103530001643DE601E69484F3E4030430726702721
:1035400018615869B043284358615E69A06BBE4357
:10355000000130435861604600283FD11021986A2D
:10356000494201439962DB683C490B40934255D183
:1035700000230322E365A36D93431A000123134341
:10358000A365019807B0F0BDB26835490A401343FE
:10359000B360344B34491868FCF7DEFD013040005D
:1035A0000590059B002B00D13FE7059B013B059350
:1035B000F7E710230125A26D01951343A365E36D81
:1035C0002B43E36537E78026B60391E72027A56DF7
:1035D0002F43A765E76D3E43E6659CE780208003A7
:1035E0008445C0D10F27206E05008E00F5402E00C7
:1035F0003E400F2E0DD001310829F5D11C26996AC5
:103600001A4DE1694919890031402C3E8E40310044
:10361000A7E70129F2D1986A1139A2E71222A36D16
:10362000012593431A0010231343A365E36D01950D
:103630002B43E365A5E7A26D1343A3650123019323
:103640009FE7C046FDFEFFFF02FCFF1F0827014069
:10365000FFFFC3FF1902FEFF02FCFFDFE7FF3F830E
:10366000E8FFFF6F0C000020400D0300FFFFFF3F4D
:103670000023F0B587B00593030054331A78050092
:103680000E000220012A00D1C0E0012428681C702D
:10369000FFF7AEFE0290002800D0EBE080227368B6
:1036A0001206019304232F699446019A9F433368BD
:1036B000022A00D1B3E059032A68490B67450FD1AC
:1036C000906A01439162B1686D4854690840604056
:1036D0001902014061405161002B63DB002092E040
:1036E0001F20019F0740BC460F2760468740FF43CD
:1036F000286E38400390002916D1980E1F310840DB
:103700006146884003990843019928668908E86959
:1037100001318142D7D864469900090FA140906ACF
:1037200007400F439762CEE702982342E8D1022177
:1037300020000B42E4D1080049180B42E0D10130CF
:103740001907DDD40130D906DAD401309906D7D46F
:1037500001305906D4D401301906D1D40130D9052D
:10376000CED401309905CBD401305905C8D40130ED
:103770001905C5D40130D904C2D401309904BFD48D
:1037800001305904BCD401301904B9D40130D90333
:10379000B6D401309903B3D48020C0021840AFD012
:1037A0001220ADE7E021374A374C10684904014048
:1037B000A3421AD18024240420428FD113683348B5
:1037C00003400B4323431360314B32491868FCF725
:1037D000C3FC431C0C2058430590059B002B00D1D3
:1037E0007CE7059B013B0593F7E72B4CA3420FD1E8
:1037F00080246404204000D070E71368234E3340D7
:103800000B4323431360002354352B7007B0F0BDE6
:10381000224CA34200D061E78024E403EAE7674535
:1038200005D128685903826A490B8A438262002BBA
:1038300000DB53E7134A144910688B4208D1A023D8
:1038400014685B041149034021400B43136045E7B2
:1038500011498B4203D1C02314681B04F2E70F49BE
:103860008B4200D03AE7C0235B041168034007484D
:103870000140EAE72023AA6D20001343AB65C2E7AD
:1038800000FFFF0708270140001000B0FFFF3FFEC8
:103890000C000020400D0300004000B8002000B4E0
:1038A00070B504000068FFF7A3FD002801D10020D7
:1038B00070BD23689A68920705D49A680F49114031
:1038C00010220A439A60FFF76FFD04250600236863
:1038D0009B682B42EBD0FFF767FD801B0228F6D9CF
:1038E00023689B682B42F2D010230120A26D134362
:1038F000A365E36D0343E365DAE7C046E8FFFF7FB6
:103900000023F7B504000193036801209A6802427E
:1039100001D00020FEBD9968224A114207D0102331
:10392000A26D1343A365E36D0343E365F2E79A6871
:103930001D4E3240104398601C4B1B681B0223D461
:10394000637E012BE5D0FFF72FFD012507002268DC
:1039500013682B42DDD193682B4203D19368334027
:103960002B439360FFF720FDC01B0228EFD923688B
:103970001B682B42EBD11023A26D01201343A365DA
:10398000E36D1D43E565C5E7094B0A491868FCF777
:10399000E3FB01300190019B002BD1D0019B013B47
:1039A0000193F8E717000080E8FFFF7F0827014038
:1039B0000C000020400D030070B504000068FFF704
:1039C00017FD06000220002E1DD1250054352B784E
:1039D000012B18D0012320002B70FFF791FF002846
:1039E00012D1A36D094A0A491A4080235B00134390
:1039F0001C22A3652368E0651A609A68287011404C
:103A000004220A439A6070BD2E70FCE7FEF0FFFFAF
:103A1000E8FFFF7F036870B5022204000120996867
:103A20009D681140054201D1002070BD0029FBD1E5
:103A30009D6805310D40012D1FD199681348014043
:103A40000A439A6003221A60FFF7AEFC060023685F
:103A50009B682B42E8D0FFF7A7FC801B0228F6D911
:103A600023689B682B42F2D01023A26D01201343E0
:103A7000A365E36D1D43E565D7E71023A26D1343EE
:103A8000A365E36D0343E365CFE7C046E8FFFF7F2F
:103A900070B506005436337804000220012B12D092
:103AA000012520003570FFF7FBFE002809D120001A
:103AB000FFF7B0FF002804D1A36D034A13401D4354
:103AC000A5650023337070BDFEFEFFFF73B50023B4
:103AD0000500019354352B7804000220012B33D0CC
:103AE000012620002E70FFF795FF23689A68324266
:103AF00006D01023A26D1343A36500232B7023E08F
:103B0000A26D16490326114002220A43A265DA6813
:103B1000D968B143D96080219E6809063143104EAF
:103B200099609968002910DA019901310191019990
:103B3000B142F6D91222A36D012093431A0010233B
:103B40001343A36500232B7076BD0321DE680A4072
:103B50003243DA60A26D01238A43CCE7FDFEFFFF0A
:103B6000FFF1020030B5FF2503242A00C3B21C4038
:103B7000E400A24089012940D243A14000280ADB89
:103B8000C0240B4B80088000C018A40003591A40C1
:103B90001143015130BD0F200340083B05489B08ED
:103BA0009B001B18D86902401143D961F2E7C04657
:103BB00000E100E000ED00E0002805DB1F231840D5
:103BC0001E3B8340014A13607047C04600E100E09D
:103BD000BFF34F8F034B044ADA60BFF34F8FC046E9
:103BE000FDE7C04600ED00E00400FA0570B5C46CC6
:103BF000056D6560446D002C02D0846DC56D6560F7
:103C00001C25446C066C25400124AC40746004689B
:103C100063608368102B02D1A260E16070BDA16077
:103C2000E260FBE770B50668436C0500F0B2083847
:103C300014219C08FCF790FA094BA4009E420AD874
:103C4000084BE418AC64084BEB641F2318401E3B80
:103C500083402B6570BD054B0730E418AC64F2E778
:103C60000704024000080240800802401C0802408D
:103C700070B504000120002C4ED025682D4B142176
:103C80009D424AD82C4BE818FCF766FA2B4B800073
:103C9000606423640223A61DF3772B68284AE16839
:103CA00013402B60A3682A680B43216920000B4353
:103CB00061690B43A1690B43E1690B43216A0B4323
:103CC00013432B60FFF7AEFF8023A268DB019A420B
:103CD00001D1002363607F236268A16C13400B60F5
:103CE000206DE16C013A4860032A1ED8154A164837
:103CF00099180322013B1340023A9A40E2651300EF
:103D0000002289006165A0650A60436000200123EC
:103D1000E0630534F377E07770BD0C4BE818FCF7EF
:103D20001BFA800060640A4BB3E700236365A36558
:103D3000E365EBE707040240F8FFFDBF0000024027
:103D40000F80FFFF3F82001040090240F8FBFDBFDB
:103D500000040240F8B5461DF57F04000220012D45
:103D600031D00138A51DF077AC46ED7F0027EDB2CC
:103D7000854230D166460130F0772668E7633068C7
:103D8000A84330602000FFF731FF226B2368BA425E
:103D90001AD00E2219680A431A60A26C1168C9036E
:103DA00004D580211068490001431160626D002A2A
:103DB00004D08021106849000143116001220020D5
:103DC00019680A431A60F8BD04211A688A431A6008
:103DD00019680A22DFE78023E363F777F3E700003F
:103DE0000300F0B50120002B09D0981DC27F5C1D97
:103DF000022A05D00422DA6300230120E377F0BD14
:103E00000E2519689E6C0A685F6CAA430A603268C6
:103E10000E4D2A40326001220E6896430E601C212E
:103E200039408A401E6C196D7260DA6C51605A6DAF
:103E3000002A05D01168294011609A6DDB6D53602E
:103E40000123C3770020E077D9E7C046FFFEFFFFDC
:103E5000F8B51C220427466C016C32403E009640A7
:103E60000D6803681C6835420DD03C420BD01A68BF
:103E7000920602D41A68BA431A60036B4E60002B94
:103E80001DD098471BE002273E009640354219D0CE
:103E90003C4217D01A68920606D40A211A688A434F
:103EA0001A600939821DD177124A934208D9124B00
:103EB00000225E60431DDA77C36A9342E1D1F8BD08
:103EC0000E4BF5E70826370097403D42F7D03442C5
:103ED000F5D00E251C68AC431C6001231C009440E7
:103EE000821D4C60C363D3770022431DDA77436B96
:103EF000E3E7C046800002400004024000000240A8
:103F0000F0B5564A0B688218541EA24187B003933D
:103F1000002304320592039ADA4001D107B0F0BDC4
:103F200001273A009A4094466446039A224001923F
:103F300000D190E003244A685E0000922240B44021
:103F4000E4430294541EBC4229D88568029C254053
:103F5000CC68B4402C43846064464568A543009C0B
:103F600024093C409C402C434460C568029C254089
:103F70008C68B4402C43C460022A12D1DC08A4002F
:103F800007250419276A04940F241D40AD00AC4096
:103F9000A7430C69AC402743049C276201E0032A35
:103FA000E3D10468029DB24025402C001443C02296
:103FB0000460009C920214424DD003271D00284A41
:103FC0009C08A4003D40A418BD400F22AA40266EC4
:103FD0009643A022D2059446002260450FD0214A84
:103FE0009446012260450AD01F4A94460222604549
:103FF00005D01E4A94463A00604500D0059AAA4072
:10400000324322661A4A019CD66F019D009FE44309
:104010003543FF0301D435002540D567154D019E7A
:10402000EA6F009F1643BF0301D4224016000C4ADA
:10403000EE671668019D009F3543FF0201D43500ED
:10404000254015605568019E009F2E43BF0201D494
:1040500025402E00566001335DE7C04600F0FFAFFB
:10406000001802400004005000080050000C0050EE
:10407000041802400818024000690840411E8841A7
:10408000C0B27047002A01D0816170478162FCE7AD
:1040900003689A69920701D500229A620122996900
:1040A000114202D199690A439A61704730B5039C65
:1040B0001204006822431343054A45688905640DCC
:1040C000890D1443A5430B432B43436030BDC046C9
:1040D000FF63FF03F8B5036816009A6904000D003A
:1040E0000020D20636D55A68920104D4802259683D
:1040F000D2010A435A60202723689A693A4212D0B3
:1041000010222000DA61DF61FFF7C2FF2268124946
:1041100053680B4053600423626C134363642300B1
:1041200041331F700FE06A1CE7D0FFF73DF9801B99
:10413000854201D3002DDFD12022636C13436364D9
:10414000230041331A702200002301204232403400
:1041500013702370F8BDC04600E800FEF8B50400F7
:104160000D001600022723689B693B4201D0002006
:10417000F8BD320029002000FFF7ACFF002815D160
:104180006B1CF0D0FFF710F9801BA84201D8002D5E
:10419000E9D12022636C13436364230041331A7016
:1041A0002200002342324034137023700120DFE7E5
:1041B000F8B504000D001600202723689B693B42D8
:1041C00001D00020F8BD320029002000FFF782FF57
:1041D000002813D1FFF7E8F8801BA84201D8002D72
:1041E000EBD12022636C13436364230041331A70C4
:1041F0002200002342324034137023700120E1E793
:10420000F8B504000E0017001D00226893693340C2
:104210009B1B59424B41BB4201D0002017E06B1C55
:10422000F4D0FFF7C1F8069BC01AA84201D8002DB0
:10423000EBD12022636C01201343636423004133DC
:104240001A70220000234232403413702370F8BDEC
:1042500073B514001E00DAB2154B050000938023DD
:104260005B04FFF723FF079A06992800FFF776FF04
:10427000002801D0012076BD2B68012E0DD1E4B2BB
:104280009C62079B002200938021069B2800FFF779
:10429000B7FF431E9841C0B2EDE7220A9A62069921
:1042A000079A2800FFF75AFF0028E3D12B68E6E7BA
:1042B0000020008073B5050014001E00DAB2154B13
:1042C00000930023FFF7F2FE079A06992800FFF7F4
:1042D00045FF002801D0012076BD2B68012E0DD1AD
:1042E000E4B29C62079B002200934021069B2800B9
:1042F000FFF786FF431E9841C0B2EDE7220A9A629B
:104300000699079A2800FFF729FF0028E3D12B68B8
:10431000E6E7C0460020008070B504000120002CB4
:104320003FD0250041352B78DBB2002B05D1220090
:1043300040321370200004F0A3FE242301212B70CF
:104340002368E0681A68A6688A431A6061681A4A96
:104350000A401A619968194A11409960012821D1CF
:104360008021090231439960586815490143596019
:10437000D96800200A40DA60616922690A43A169AC
:1043800009020A43DA60216AE2690A431A600122DB
:1043900019680A431A60202360642B70206342343A
:1043A000207070BD84210902314399600228DBD15D
:1043B000802109015960D7E7FFFFFFF0FF7FFFFF72
:1043C00000800002F0B5050087B0039104920593C8
:1043D00041352B7804000220202B14D123004033D8
:1043E0001A78012A0FD001261E70FEF7DDFF80210A
:1043F000070000901923320009022000FFF700FF98
:10440000002802D0012007B0F0BD21232B70250029
:10441000113B42352B70049B606463626B469B8A40
:1044200060636385628D304BFF2A21D9FF2222858C
:10443000009380235B0403992000FFF737FEFF26DB
:10444000638D3A000C992000002B19D1FFF7B0FEC4
:104450000028D7D120212368244ED9615A683240E0
:104460005A60230040344133197028702070CAE725
:10447000628D92B2228500938023D2B29B04DAE748
:10448000FFF76CFE0028BDD1636A226819780133FA
:1044900091626362638D228D013B9BB26385013A19
:1044A000638D92B22285002BCAD0002AC8D1009712
:1044B0000C9B80212000FFF7A3FE0028A2D1638D72
:1044C000FF2B09D98023FF2226855B0400900399E6
:1044D0002000FFF7EBFDB3E78023628D9B0492B2CF
:1044E0002285D2B20090F2E70020008000E800FEB2
:1044F000F0B5070089B007930EAB069204CB4137A5
:104500001B88049205933B7804000D000220202BA9
:1045100008D1002A02D0059B002B05D180239B00E7
:104520006364012009B0F0BD2300403303931B787E
:10453000012BF7D00122039B1A70FEF735FF802173
:10454000029000901923012209022000FFF758FE73
:10455000061EE6D121233B7027001F3342373B70F4
:10456000049B606463626B469B8A60636385029B05
:10457000069A0193109B290000932000079BFFF7E8
:1045800067FE002802D0039B1E70CAE7638DFF2BD5
:1045900054D9FF22802322855B040090290020004B
:1045A0008026FFF783FDB604029A10992000FFF7DA
:1045B000D5FD0028B5D1636A22681978013391626C
:1045C0006362638D228D013B9BB26385013A638DEB
:1045D00092B22285002B18D0002A16D1029B80218E
:1045E00000932000109BFFF70BFE002800D098E7F7
:1045F000638DFF2B2AD9FF2323858023FF22009080
:104600005B0429002000FFF751FD638D002BCBD107
:10461000029A10992000FFF7CBFD002800D080E718
:10462000202123680D4DD9615A682A405A60230021
:104630004034413319703870207073E78023628DE5
:104640009B0492B22285D2B20090A7E7628D33001C
:1046500092B22285D2B20090D3E7C04600E800FEB5
:10466000F0B5070089B007930EAB069204CB413733
:104670001B88049205933B7804000D000220202B38
:1046800008D1002A02D0059B002B05D180239B0076
:104690006364012009B0F0BD2300403303931B780D
:1046A000012BF7D00122039B1A70FEF77DFE8021BB
:1046B000029000901923012209022000FFF7A0FDBB
:1046C000061EE6D122233B7027001E3342373B7083
:1046D000049B606463626B469B8A60636385029B94
:1046E000069A0193109B290000932000079BFFF777
:1046F000E1FD002802D0039B1E70CAE7628D354B96
:10470000FF2A58D9FF222285009380235B042900C9
:1047100020008026FFF7CAFCB604029B002200930B
:104720000421109B2000FFF76BFD0028B1D1236806
:10473000626A5B6A1370636A228D01336362638D00
:10474000013A013B9BB26385638D92B22285002BB7
:1047500018D0002A16D1029B802100932000109BC4
:10476000FFF74EFD002800D093E7638DFF2B2AD979
:10477000FF2323858023FF2200905B042900200073
:10478000FFF794FC638D002BC7D1029A109920008B
:10479000FFF70EFD002800D07BE7202123680E4D97
:1047A000D9615A682A405A60230040344133197055
:1047B000387020706EE7628D92B22285009380235C
:1047C000D2B29B04A3E7628D330092B22285D2B2AB
:1047D0000090D3E70024008000E800FEF0B504005C
:1047E000413422780300D2B20220202A18D11D00C1
:1047F00040352E78012E13D01B68223020701E68A1
:10480000233886431E601E68064F3E401E601E68A9
:10481000314319601968084318600020227028701D
:10482000F0BDC046FFEFFFFFF0B5050041352A7827
:104830000300D2B20220202A17D11C00403426786F
:10484000012E12D01B68223028701E682338864340
:104850001E601E68054F09023E4031431960196809
:104860000843186000202A702070F0BDFFF0FFFFA1
:104870000A2382B00193019B002B07D1054BC00096
:10488000C01840688001800D02B07047019B013B59
:10489000F0E7C046009800400A2382B00193019BD4
:1048A000002B07D1054BC000C01800688001800DA7
:1048B00002B07047019B013BF0E7C0460098004002
:1048C000F0B504008BB00125002835D0324D435D92
:1048D000DBB2002B04D1AE229200835406F00CFF11
:1048E00003232068635503F04BF8002301271900C8
:1048F0006068834223D3002228261100904238D8D2
:1049000023006A46103343CB43C243CB43C243CB5D
:1049100043C2A268E3686168206803F039F82200A6
:10492000002334321370012262551D00236A934222
:1049300002D1200000F0FCFD28000BB0F0BD3926AC
:104940002822B4465A43A218944466463770382643
:10495000B446944466463370961DF3873B26B446AE
:104960009444664601333170DBB29164D1641165C1
:10497000BFE733005343E3181F007A37FF3739701E
:104980009133013F3A70F970FF33103701323960CB
:104990007960D2B21960B1E7B902000070B5AE25F6
:1049A000AD00435D04000220012B09D001232068E3
:1049B000635502F0DDFF206803F012FA0020605515
:1049C00070BD70B5AE25AD00435D04000220012B23
:1049D00009D001236355230034331970206803F094
:1049E000F9F90020605570BDF0B5C04B85B01B686B
:1049F00004005B0700D4A3E0006803F0F8F980230B
:104A00001B02184206D00293236802995A6C0A428C
:104A100000D097E0206803F0EAF943050BD522683F
:104A2000B349536C20000B40536406F0BDFE0021D7
:104A30002000FFF7C6FF206803F0D9F9430404D52E
:104A40002268AC49536C0B405364206803F0CFF9E3
:104A5000830404D52268A849536C0B405364206832
:104A600003F0C5F9C3041AD5042123681A6C8A43DC
:104A70001A641A6C49188A431A64BC239B00E25CCE
:104A8000012A04D100212000E15400F064FD20003F
:104A900006F0AEFE22689949536C0B4053642068BF
:104AA00003F0A5F903050FD5082322682000116C37
:104AB0000B431364536C92490B4053640423116CF1
:104AC0000B43136406F082FE206803F090F903069E
:104AD0001FD5BC2022688B49536C80000B40536467
:104AE000235C002B01D000F006FC116C04330B4357
:104AF00013640823116C0B431364536D3C229B0811
:104B00001340BD22012192002154A350200000F047
:104B100022FD206803F06BF9830507D522687A49E6
:104B2000536C20000B40536406F037FE206803F0FE
:104B30005EF9C30504D522687449536C0B40536475
:104B400005B0F0BD0F27596C0F4000D0A2E0102235
:104B500011401A6825D16E480240029802431A603B
:104B6000230038331B786B4ADB009B181B68E26C10
:104B70009B019B0D6365D318E364200006F002FEE1
:104B8000230034331A78002A00D13DE7216D002933
:104B900000D039E780251A7820682A43C26419704A
:104BA00032E78026360116401BD0BC235B00E05C58
:104BB000FFF75EFE2200B0217932FF328900030048
:104BC000D06161182068928803F09AFC2168524AEB
:104BD0000B6820001A40802313430B6006F0BCFDD5
:104BE00012E7120400D40FE71A684B492500114060
:104BF00080220A431A60BC235B00E05CFFF738FEAA
:104C00007935FF35031EE8610ED0696900290BD0A4
:104C1000AA88206803F074FC6B69EA6931009B186C
:104C20006B61200006F0A1FD21680B681B0500D513
:104C3000EAE6384A53689BB253602B69002B12D1C5
:104C40005368364803405360802350681B06034373
:104C500053600A68324B1A40C0239B015A40314BC3
:104C600013430B60D0E63E2B08D8012558082B4093
:104C7000C0185368800618435060EAE71F2558099A
:104C80002B405D426B41C01A802355681B0680068D
:104C90002B43F0E7BA0000929A1811680191694617
:104CA000898800910199090400D4B4E0282511688D
:104CB00019487D43084080216519014311602A008D
:104CC0008332FF3211780A3A107800292CD1FFF78D
:104CD000CFFD061E00D17CE02B007D338D35FF33E8
:104CE000FF351A882968330070E0C046A0000140F3
:104CF000FFFB0000FFBF0000FFDF0000FFEF000030
:104D0000FFF700007FFF0000FFFD0000FFFE000036
:104D10000F8F7F07009800408F0F7F07FFFFFF83F3
:104D20008FBF7F078080000029007C31FF31097828
:104D3000022900D0E9E08023009ADB011A40913576
:104D400080B20392FF35002A00D1A0E0FFF7A4FD56
:104D50002A6803000600824200D296E0121A2A60F6
:104D600028227A43A21811009131FF3109680029E5
:104D70000ED17932FF321278216892008A181068B9
:104D8000D8490840802189014840D7490143116032
:104D9000009A52060ED528227A43A2187932FF32A1
:104DA0001278216892008A181168D0480840D049CA
:104DB00001431160002B0CD02821794361180A00AF
:104DC0007F328D31FF32FF3112880968206803F08D
:104DD00097FB282319007943621815009535FF3594
:104DE0002868083D8019A86028688019286010008C
:104DF0009130FF300068002805D08932FF321268F8
:104E0000964200D3A0E07B43E3187933FF3319784F
:104E1000200006F0AAFC019B1B0600D4F4E52068E4
:104E2000BB00C2181368B3490B4002990B431360CF
:104E300028237B43E3183B331B78032B08D0002B3C
:104E400006D0022B00D093E0019BDB0500D58FE05C
:104E500028210B007B43E3181A0038321278A64D44
:104E6000D200521912681D6D9201920D954272D9AD
:104E7000AD1A79431D6563181D6D002D6DD1383352
:104E80001978200006F07EFCBEE5002267E7FFF7F8
:104E9000EFFC2A6803000600824234D3121A2A600B
:104EA00028227A43A21811009131FF3109680029A4
:104EB0000ED17932FF321278216892008A18106878
:104EC0008849084080218901484087490143116091
:104ED000009A52060ED428227A43A2187932FF3261
:104EE0001278216892008A18116880480840804929
:104EF00001431160002B00D16BE728217943611831
:104F00000A0081325DE7039AC9E78000181801683A
:104F1000764E0E40764931430160107882009B182E
:104F20001B6880B25B0407D5FFF7B6FC061E00D1F4
:104F30004FE72B007F33D1E6FFF79AFC061E00D126
:104F400047E72B008133C9E67931FF3161182068CA
:104F500002F088FF5FE700258BE7DD6C3831AD1884
:104F6000DD645D6D6118AA185A6502F07BFF4BE5A0
:104F700028257D4365192B00402638331878009B7F
:104F80001E4000D1EEE0FFF787FC2B6D0600834248
:104F90004FD91B1A2B658025009BED012B401D006E
:104FA00028237B43E3181A6D002A53D11A003932A3
:104FB000127838331978002A3DD14F4ACB009B181C
:104FC0001A684E4E92B21A601A6832401A608022F5
:104FD0001868120610431860586880B25860586804
:104FE00030405860586802435A60200006F0CAFBFF
:104FF000002D0DD028237B43E31838331B7822681B
:105000009B00D3181A68394911403D4A0A431A6077
:1050100028237B43E31838331B7822689B00D3187E
:105020001968384A1140302251402F4A0A431A6009
:10503000EAE40023AEE7012AD7D12F4ACB009B1820
:105040001A6892B21A601A681A605A6892B25A6064
:105050005A68C9E72068002D09D038331B782349E6
:105060009B00C3181A681140254A0A431A605C2342
:1050700028229C467A43A218944463461B78012B4D
:10508000C6D1D36C956D9B190093D364536D9B1956
:105090005365936C9D4237D3ED1A956528227A4368
:1050A000A218150039352D78002D4ED138321278DE
:1050B000114DD20052191568ADB21560002B2FD1D9
:1050C00015680E4E35401560802516682D0635434F
:1050D000156028227A43A218D28F00999BB202F061
:1050E00089FE95E78FBF7F07808000008F8F7F0745
:1050F000C08000000F8F7F0700980040FFFFFF83F4
:1051000080C00000BF8F7F07002D03D163461D7054
:105110003300C3E700236646337093652B00BDE779
:105120003E2B06D801265D081E40AD19AD06166857
:10513000CDE71F261E40714271415D096D1A802125
:1051400016680906AD060E43C1E7012DC1D13832FC
:1051500012786B49D20052181568ADB21560166806
:105160001D04B4E7FFF784FB2B6D834240D31B1A69
:105170002B658025009BED012B401D0028237B43E0
:10518000E3181A6D002A44D11A00393212783833E4
:105190001978002A2ED15A4ACB009B181A68594E0A
:1051A00092B21A601A6832401A6080221868120699
:1051B00010431860586880B2586058683040586092
:1051C000586802435A60200006F0DCFA002D00D037
:1051D0001EE728237B43E31838331B7822689B00A3
:1051E000D1180B68484A1A40484B13430B600FE72D
:1051F0002E65BEE7012AE6D1414ACB009B181A680A
:1052000092B21A601A681A605A6892B25A605A6862
:10521000D8E722689446002D09D138331B783A49E3
:105220009B0063441A681140384A0A431A602822D6
:105230007A43A21816005C363378012B00D0E7E6DB
:10524000D36C956D1918536DD1641B185365936C0D
:105250009D4224D3ED1A956528227A43A2181500A1
:1052600039352D78002D39D1383212782448D200C2
:1052700012185568ADB25560002B1AD15568214EF1
:1052800035405560802556682D06354355602822E7
:105290007A43A21802329BB2D28F60461FE7002DDC
:1052A00002D135700300D7E70023936533702B00DC
:1052B000D2E73E2B06D801265D081E40AD19AD068B
:1052C0005668E2E71F261E407042464180205D0975
:1052D000AD1B56680006AD060643D6E7012DD6D1B4
:1052E000383212780648D20012185568ADB25560AF
:1052F00056681D04C9E7200006F068FAFFF709FCAC
:1053000000980040FFFFFF838F8F7F0780C0000061
:1053100070B50725040028200D40684349B22618BF
:1053200000291EDA01000120383161183936307049
:105330000A614A780D70CB70002A00D08D81022B53
:1053400001D10023CB72AE25AD00635D0220012B9D
:1053500006D001232068635502F02CFB0020605525
:1053600070BD01007931FF317A366118FF360020B7
:10537000DDE770B50400072028230840434349B205
:10538000E218002913DA3833E11801233932AE2547
:105390001370AD000870635D0220012B06D001235D
:1053A0002068635502F02CFC0020605570BD7933F5
:1053B000FF337A32E118FF320023E8E770B50724A3
:1053C000214021344C4305192E008D36FF363260C2
:1053D0002A009132FF3213602B0000269533FF33F1
:1053E00079351E60FF351B3B1E7029702100793115
:1053F000FF314118006802F035FD300070BD072311
:105400000B402821594340189530FF300068704701
:1054100070B50724282521404D4344192600E26435
:1054200001225C3623653270A36500262300666581
:10543000393338341A702170290038314118006826
:1054400002F010FD300070BD70B5040007226368E3
:105450000A4001209A4219D84DB22823002D16DAAD
:1054600053431900E3183831611839331870AE25E9
:1054700001230A708B70AD00625D02209A4205D054
:105480006355206802F048FC0020605570BD4B4316
:105490001900E3187931FF317A336118FF330020A6
:1054A000E4E770B504000F2362680B4001209342CB
:1054B0001BD8072228230A40534349B2E518002984
:1054C00014DA38333935E11828700025AE268D708E
:1054D0000A70B600A35D0220012B06D001232068CC
:1054E000A35502F035FC2800A55570BD7933FF3374
:1054F000E11800237A35FF352B70E6E730B5282414
:105500000D060BD50725294061433831411898B263
:10551000002A07D18A728880002030BD614379312A
:10552000FF31F3E701221B0C8A72C8800B81F3E77D
:1055300003680100BE20012210B58000BC240A507F
:105540000020A4000855596D0A435A650222596D7E
:105550000A435A6510BD704710B5104C10492368B6
:1055600002000B4003432360802300209B009A42EB
:105570000CD10C4B0C49186806235843FAF7ECFD84
:105580008022431CD2006069104000D110BD002B66
:1055900001D0013BF7E70320F8E7C0460070004068
:1055A000FFF9FFFF0C00002040420F00F0B504009F
:1055B00085B0002802D1012005B0F0BD0368DB07EB
:1055C00010D423689B075CD423681B0700D5C2E076
:1055D00023685B0700D5F4E0E269002A00D07BE194
:1055E0000020E9E73822B04DAB681340EA68102B81
:1055F00009D1D243930708D12B689B03E1D5636897
:10560000002BDED1D7E7082BF6D080226368520248
:10561000934211D12A6813432B60FDF7C5FE802603
:105620000700B6022B683342CBD1FDF7BDFEC01B8D
:105630006428F7D90320BFE7A021C9028B4208D113
:1056400080232968DB020B432B602B681A432A60F6
:10565000E3E72A6895490A402A602A6894490A4083
:105660002A60002BD9D1FDF79FFE80260700B602E5
:105670002B683342A5D0FDF797FEC01B6428F7D9ED
:10568000D8E73823884DAA681340EA68102B29D13F
:1056900003210A40022A27D12A68520503D5E2686D
:1056A000002A00D187E769686269824812020140D6
:1056B0000A436A60002B0DD12B687F4A1340226990
:1056C00013432B602B687D4A9B045B0FDA40130069
:1056D0007B4A13607B4B186803F090FE002800D1D2
:1056E00072E768E7002BD7D0E368002B20D02B6847
:1056F000714A802613402269F60013432B608023F1
:105700002A685B0013432B60FDF74EFE07002B68F1
:10571000334207D06A68636966491B020A40134333
:105720006B6051E7FDF740FEC01B0228EFD981E70F
:105730002B68654A802613402B60FDF735FE070075
:10574000F6002B68334200D13EE7FDF72DFEC01B6B
:105750000228F6D96EE73821534B9A681D000A409B
:10576000182A08D11B6E9B0700D431E7A369002BD0
:1057700000D02DE71FE7A2690123002A10D02A6E6E
:10578000022613432B66FDF70FFE07002B6E3342F4
:1057900000D01DE7FDF708FEC01B0228F6D949E737
:1057A0002A6E02269A432A66FDF7FEFD07002B6E3D
:1057B000334200D10CE7FDF7F7FDC01B0228F6D9F4
:1057C00038E73821384B9A681D000A40202A08D152
:1057D000DB6D9B0700D4FFE6A368002B00D0FBE63F
:1057E000E9E680220021DB6B52050091134208D1CB
:1057F000EB6B1343EB63EB6B13400393039B0123AE
:1058000000938027314E7F0033683B4215D0A36858
:10581000012B22D1EA6D1343EB65FDF7C5FD02278D
:105820000600EB6D3B4238D0009B012B00D0D3E645
:10583000EB6B274A1340EB63CEE633683B433360A0
:10584000FDF7B2FD019033683B42E0D1FDF7ACFDBE
:10585000019BC01A0228F6D9ECE6EA6D052B05D1AA
:10586000013B1343EB65EA6D0123D4E701218A4331
:10587000EA65EA6D03318A43EA65002BCDD1FDF775
:1058800093FD02270600EB6D3B42CDD0FDF78CFD6A
:10589000104B801B9842F6D9CCE6FDF785FD0D4BE9
:1058A000801B9842BDD9C5E600100240FFFFFEFFF5
:1058B000FFFFFBFFFF80FFFFFFC7FFFF0024F40097
:1058C0000C00002008000020FFFEFFFF00700040D9
:1058D000FFFFFFEF881300003820444B99681D003C
:1058E0000140102954D01B6841490B402B60022A0B
:1058F00037D1FDF759FD80260700B6042B683342E7
:1059000029D1616A236AEA680B433A490A40134382
:10591000E26A1343226B1343626B1343A26A80242F
:1059200012021343EB6080232A685B0413432B604D
:105930008023EA685B051343EB60FDF735FD060045
:10594000A4042B68234200D04AE6FDF72DFD801BFE
:105950000228F6D96EE6FDF727FDC01B0228CDD937
:1059600068E60322EB6880249343EB60EB68224AED
:10597000A4041340EB60FDF717FD06002B682342DB
:1059800000D12DE6FDF710FD801B0228F6D951E667
:10599000012A00D10FE6D8680323226A034093420C
:1059A00000D008E67023626A0340934200D002E60A
:1059B000FE22A36AD20102401B029A4200D0FAE5FD
:1059C000F823E26A9B030340934200D0F3E5E0230F
:1059D000226B1B050340934200D0ECE5636B400F44
:1059E0004007C01A431E9841C0B2E5E500100240CE
:1059F000FFFFFFFE8C80C111FFFFFEEE022370B59A
:105A000088B016000493032200230D00069205932C
:105A1000984219D10121184C626B0A436263636B8F
:105A200007900B400193019BA020802303A95B00FA
:105A3000C0050393FEF764FAA1680902090A31431D
:105A40002943A16008B070BD0128FBD10A4C03A90D
:105A5000636B03436363636B079218400290029B7E
:105A6000A0208023C005DB000393FEF749FAA1685C
:105A7000024B1940E3E7C04600100240FFFF00FF61
:105A800038231F4A70B591681400194208D10121CA
:105A900013681C489B045B0F9940FAF75DFB70BDCF
:105AA00091681940082925D091681940102915D10D
:105AB000D368D168DB437F22E5684906490F2D0A88
:105AC000013115409B0707D10F48FAF745FBE16804
:105AD0006843490F0131E0E70A48F6E79168194049
